{
  "contractName": "TaskToDo",
  "abi": [
    {
      "inputs": [],
      "stateMutability": "nonpayable",
      "type": "constructor"
    },
    {
      "inputs": [
        {
          "internalType": "uint256",
          "name": "",
          "type": "uint256"
        }
      ],
      "name": "tasks",
      "outputs": [
        {
          "internalType": "string",
          "name": "desc",
          "type": "string"
        },
        {
          "internalType": "enum TaskToDo.TaskStatus",
          "name": "status",
          "type": "uint8"
        }
      ],
      "stateMutability": "view",
      "type": "function",
      "constant": true
    },
    {
      "inputs": [
        {
          "internalType": "string",
          "name": "_desc",
          "type": "string"
        }
      ],
      "name": "addTask",
      "outputs": [],
      "stateMutability": "nonpayable",
      "type": "function"
    },
    {
      "inputs": [
        {
          "internalType": "uint256",
          "name": "id",
          "type": "uint256"
        }
      ],
      "name": "markAsFinished",
      "outputs": [],
      "stateMutability": "nonpayable",
      "type": "function"
    },
    {
      "inputs": [],
      "name": "getAllTasks",
      "outputs": [
        {
          "components": [
            {
              "internalType": "string",
              "name": "desc",
              "type": "string"
            },
            {
              "internalType": "enum TaskToDo.TaskStatus",
              "name": "status",
              "type": "uint8"
            }
          ],
          "internalType": "struct TaskToDo.Task[]",
          "name": "",
          "type": "tuple[]"
        }
      ],
      "stateMutability": "view",
      "type": "function",
      "constant": true
    },
    {
      "inputs": [
        {
          "internalType": "uint256",
          "name": "id",
          "type": "uint256"
        }
      ],
      "name": "getTask",
      "outputs": [
        {
          "internalType": "string",
          "name": "",
          "type": "string"
        },
        {
          "internalType": "enum TaskToDo.TaskStatus",
          "name": "",
          "type": "uint8"
        }
      ],
      "stateMutability": "view",
      "type": "function",
      "constant": true
    }
  ],
  "bytecode": "0x608060405234801561001057600080fd5b50336000806101000a81548173ffffffffffffffffffffffffffffffffffffffff021916908373ffffffffffffffffffffffffffffffffffffffff160217905550610f53806100606000396000f3fe608060405234801561001057600080fd5b50600436106100575760003560e01c80631d65e77e1461005c578063672385621461008d578063779900b4146100a95780638d977672146100c7578063b6a74cc9146100f8575b600080fd5b610076600480360381019061007191906106dc565b610114565b604051610084929190610810565b60405180910390f35b6100a760048036038101906100a29190610975565b61024c565b005b6100b1610378565b6040516100be9190610b16565b60405180910390f35b6100e160048036038101906100dc91906106dc565b6104a4565b6040516100ef929190610810565b60405180910390f35b610112600480360381019061010d91906106dc565b61056d565b005b60606000600180549050831061015f576040517f08c379a000000000000000000000000000000000000000000000000000000000815260040161015690610b84565b60405180910390fd5b6001838154811061017357610172610ba4565b5b90600052602060002090600202016000016001848154811061019857610197610ba4565b5b906000526020600020906002020160010160009054906101000a900460ff168180546101c390610c02565b80601f01602080910402602001604051908101604052809291908181526020018280546101ef90610c02565b801561023c5780601f106102115761010080835404028352916020019161023c565b820191906000526020600020905b81548152906001019060200180831161021f57829003601f168201915b5050505050915091509150915091565b60008054906101000a900473ffffffffffffffffffffffffffffffffffffffff1673ffffffffffffffffffffffffffffffffffffffff163373ffffffffffffffffffffffffffffffffffffffff16146102da576040517f08c379a00000000000000000000000000000000000000000000000000000000081526004016102d190610c7f565b60405180910390fd5b600160405180604001604052808381526020016000600181111561030157610300610799565b5b815250908060018154018082558091505060019003906000526020600020906002020160009091909190915060008201518160000190816103429190610e4b565b5060208201518160010160006101000a81548160ff0219169083600181111561036e5761036d610799565b5b0217905550505050565b60606001805480602002602001604051908101604052809291908181526020016000905b8282101561049b57838290600052602060002090600202016040518060400160405290816000820180546103cf90610c02565b80601f01602080910402602001604051908101604052809291908181526020018280546103fb90610c02565b80156104485780601f1061041d57610100808354040283529160200191610448565b820191906000526020600020905b81548152906001019060200180831161042b57829003601f168201915b505050505081526020016001820160009054906101000a900460ff16600181111561047657610475610799565b5b600181111561048857610487610799565b5b815250508152602001906001019061039c565b50505050905090565b600181815481106104b457600080fd5b90600052602060002090600202016000915090508060000180546104d790610c02565b80601f016020809104026020016040519081016040528092919081815260200182805461050390610c02565b80156105505780601f1061052557610100808354040283529160200191610550565b820191906000526020600020905b81548152906001019060200180831161053357829003601f168201915b5050505050908060010160009054906101000a900460ff16905082565b60008054906101000a900473ffffffffffffffffffffffffffffffffffffffff1673ffffffffffffffffffffffffffffffffffffffff163373ffffffffffffffffffffffffffffffffffffffff16146105fb576040517f08c379a00000000000000000000000000000000000000000000000000000000081526004016105f290610c7f565b60405180910390fd5b6001805490508110610642576040517f08c379a000000000000000000000000000000000000000000000000000000000815260040161063990610b84565b60405180910390fd5b600180828154811061065757610656610ba4565b5b906000526020600020906002020160010160006101000a81548160ff0219169083600181111561068a57610689610799565b5b021790555050565b6000604051905090565b600080fd5b600080fd5b6000819050919050565b6106b9816106a6565b81146106c457600080fd5b50565b6000813590506106d6816106b0565b92915050565b6000602082840312156106f2576106f161069c565b5b6000610700848285016106c7565b91505092915050565b600081519050919050565b600082825260208201905092915050565b60005b83811015610743578082015181840152602081019050610728565b60008484015250505050565b6000601f19601f8301169050919050565b600061076b82610709565b6107758185610714565b9350610785818560208601610725565b61078e8161074f565b840191505092915050565b7f4e487b7100000000000000000000000000000000000000000000000000000000600052602160045260246000fd5b600281106107d9576107d8610799565b5b50565b60008190506107ea826107c8565b919050565b60006107fa826107dc565b9050919050565b61080a816107ef565b82525050565b6000604082019050818103600083015261082a8185610760565b90506108396020830184610801565b9392505050565b600080fd5b600080fd5b7f4e487b7100000000000000000000000000000000000000000000000000000000600052604160045260246000fd5b6108828261074f565b810181811067ffffffffffffffff821117156108a1576108a061084a565b5b80604052505050565b60006108b4610692565b90506108c08282610879565b919050565b600067ffffffffffffffff8211156108e0576108df61084a565b5b6108e98261074f565b9050602081019050919050565b82818337600083830152505050565b6000610918610913846108c5565b6108aa565b90508281526020810184848401111561093457610933610845565b5b61093f8482856108f6565b509392505050565b600082601f83011261095c5761095b610840565b5b813561096c848260208601610905565b91505092915050565b60006020828403121561098b5761098a61069c565b5b600082013567ffffffffffffffff8111156109a9576109a86106a1565b5b6109b584828501610947565b91505092915050565b600081519050919050565b600082825260208201905092915050565b6000819050602082019050919050565b600082825260208201905092915050565b6000610a0682610709565b610a1081856109ea565b9350610a20818560208601610725565b610a298161074f565b840191505092915050565b610a3d816107ef565b82525050565b60006040830160008301518482036000860152610a6082826109fb565b9150506020830151610a756020860182610a34565b508091505092915050565b6000610a8c8383610a43565b905092915050565b6000602082019050919050565b6000610aac826109be565b610ab681856109c9565b935083602082028501610ac8856109da565b8060005b85811015610b045784840389528151610ae58582610a80565b9450610af083610a94565b925060208a01995050600181019050610acc565b50829750879550505050505092915050565b60006020820190508181036000830152610b308184610aa1565b905092915050565b7f4e6f207461736b20686173206265656e20616464656400000000000000000000600082015250565b6000610b6e601683610714565b9150610b7982610b38565b602082019050919050565b60006020820190508181036000830152610b9d81610b61565b9050919050565b7f4e487b7100000000000000000000000000000000000000000000000000000000600052603260045260246000fd5b7f4e487b7100000000000000000000000000000000000000000000000000000000600052602260045260246000fd5b60006002820490506001821680610c1a57607f821691505b602082108103610c2d57610c2c610bd3565b5b50919050565b7f4e6f74206f776e65720000000000000000000000000000000000000000000000600082015250565b6000610c69600983610714565b9150610c7482610c33565b602082019050919050565b60006020820190508181036000830152610c9881610c5c565b9050919050565b60008190508160005260206000209050919050565b60006020601f8301049050919050565b600082821b905092915050565b600060088302610d017fffffffffffffffffffffffffffffffffffffffffffffffffffffffffffffffff82610cc4565b610d0b8683610cc4565b95508019841693508086168417925050509392505050565b6000819050919050565b6000610d48610d43610d3e846106a6565b610d23565b6106a6565b9050919050565b6000819050919050565b610d6283610d2d565b610d76610d6e82610d4f565b848454610cd1565b825550505050565b600090565b610d8b610d7e565b610d96818484610d59565b505050565b5b81811015610dba57610daf600082610d83565b600181019050610d9c565b5050565b601f821115610dff57610dd081610c9f565b610dd984610cb4565b81016020851015610de8578190505b610dfc610df485610cb4565b830182610d9b565b50505b505050565b600082821c905092915050565b6000610e2260001984600802610e04565b1980831691505092915050565b6000610e3b8383610e11565b9150826002028217905092915050565b610e5482610709565b67ffffffffffffffff811115610e6d57610e6c61084a565b5b610e778254610c02565b610e82828285610dbe565b600060209050601f831160018114610eb55760008415610ea3578287015190505b610ead8582610e2f565b865550610f15565b601f198416610ec386610c9f565b60005b82811015610eeb57848901518255600182019150602085019450602081019050610ec6565b86831015610f085784890151610f04601f891682610e11565b8355505b6001600288020188555050505b50505050505056fea2646970667358221220bdde68d53c68935e7e53304676a21c7077a370f4da83a4d4cce0a05592b5e90e64736f6c63430008130033",
  "immutableReferences": {},
  "source": "// SPDX-License-Identifier: MIT\npragma solidity 0.8.19;\n\ncontract TaskToDo {\n    enum TaskStatus {Pending, Finished}\n    address owner;\n    struct Task {\n        string desc;\n        TaskStatus status;\n    }\n\n    Task[] public tasks;\n\n    constructor() {\n        owner = msg.sender;\n    }\n\n    modifier onlyOwner {\n        require(msg.sender == owner, \"Not owner\");\n        _;\n    }\n\n    function addTask(string memory _desc) public onlyOwner {\n        tasks.push(Task(_desc, TaskStatus.Pending));\n    }\n\n    function markAsFinished(uint256 id) public onlyOwner {\n        require(id < tasks.length, \"No task has been added\");\n        tasks[id].status= TaskStatus.Finished;\n    }\n\n    function getAllTasks() public view returns (Task[] memory) {\n        return tasks;\n    }\n\n    function getTask(uint256 id) public view returns (string memory, TaskStatus) {\n        require(id < tasks.length, \"No task has been added\");\n        return(tasks[id].desc, tasks[id].status);\n    }\n}",
  "sourcePath": "C:\\Users\\heman\\OneDrive\\Desktop\\todolist\\contracts\\TaskToDo.sol",
  "compiler": {
    "name": "solc",
    "version": "0.8.19+commit.7dd6d404.Emscripten.clang"
  },
  "schemaVersion": "3.4.16",
  "updatedAt": "2024-09-23T08:28:22.890Z",
  "networkType": "ethereum",
  "devdoc": {
    "kind": "dev",
    "methods": {},
    "version": 1
  },
  "userdoc": {
    "kind": "user",
    "methods": {},
    "version": 1
  }
}